{
  "_format": "hh-sol-artifact-1",
  "contractName": "Vesting",
  "sourceName": "contracts/Vesting.sol",
  "abi": [
    {
      "inputs": [
        {
          "internalType": "address",
          "name": "_tokenInstance",
          "type": "address"
        }
      ],
      "stateMutability": "nonpayable",
      "type": "constructor"
    },
    {
      "anonymous": false,
      "inputs": [
        {
          "indexed": true,
          "internalType": "address",
          "name": "beneficiary",
          "type": "address"
        },
        {
          "indexed": false,
          "internalType": "enum Vesting.Role",
          "name": "role",
          "type": "uint8"
        }
      ],
      "name": "BeneficiaryAdded",
      "type": "event"
    },
    {
      "anonymous": false,
      "inputs": [
        {
          "indexed": true,
          "internalType": "address",
          "name": "beneficiary",
          "type": "address"
        },
        {
          "indexed": false,
          "internalType": "uint256",
          "name": "amount",
          "type": "uint256"
        }
      ],
      "name": "TokensWithdrawn",
      "type": "event"
    },
    {
      "anonymous": false,
      "inputs": [
        {
          "indexed": false,
          "internalType": "uint256",
          "name": "startTime",
          "type": "uint256"
        }
      ],
      "name": "VestingStarted",
      "type": "event"
    },
    {
      "inputs": [
        {
          "internalType": "address",
          "name": "_beneficiary",
          "type": "address"
        },
        {
          "internalType": "enum Vesting.Role",
          "name": "_role",
          "type": "uint8"
        },
        {
          "internalType": "uint256",
          "name": "noOfTokens",
          "type": "uint256"
        }
      ],
      "name": "addBeneficiary",
      "outputs": [],
      "stateMutability": "nonpayable",
      "type": "function"
    },
    {
      "inputs": [
        {
          "internalType": "uint256",
          "name": "tokens",
          "type": "uint256"
        }
      ],
      "name": "allocateTokens",
      "outputs": [],
      "stateMutability": "nonpayable",
      "type": "function"
    },
    {
      "inputs": [
        {
          "internalType": "enum Vesting.Role",
          "name": "_role",
          "type": "uint8"
        }
      ],
      "name": "checkReleasedTokens",
      "outputs": [
        {
          "internalType": "uint256",
          "name": "",
          "type": "uint256"
        }
      ],
      "stateMutability": "view",
      "type": "function"
    },
    {
      "inputs": [
        {
          "internalType": "enum Vesting.Role",
          "name": "_role",
          "type": "uint8"
        }
      ],
      "name": "claimtokens",
      "outputs": [],
      "stateMutability": "nonpayable",
      "type": "function"
    },
    {
      "inputs": [],
      "name": "owner",
      "outputs": [
        {
          "internalType": "address",
          "name": "",
          "type": "address"
        }
      ],
      "stateMutability": "view",
      "type": "function"
    },
    {
      "inputs": [],
      "name": "partnerAllocated",
      "outputs": [
        {
          "internalType": "uint256",
          "name": "",
          "type": "uint256"
        }
      ],
      "stateMutability": "view",
      "type": "function"
    },
    {
      "inputs": [],
      "name": "startVesting",
      "outputs": [],
      "stateMutability": "nonpayable",
      "type": "function"
    },
    {
      "inputs": [],
      "name": "teamAllocated",
      "outputs": [
        {
          "internalType": "uint256",
          "name": "",
          "type": "uint256"
        }
      ],
      "stateMutability": "view",
      "type": "function"
    },
    {
      "inputs": [],
      "name": "userAllocated",
      "outputs": [
        {
          "internalType": "uint256",
          "name": "",
          "type": "uint256"
        }
      ],
      "stateMutability": "view",
      "type": "function"
    },
    {
      "inputs": [],
      "name": "vestingActive",
      "outputs": [
        {
          "internalType": "bool",
          "name": "",
          "type": "bool"
        }
      ],
      "stateMutability": "view",
      "type": "function"
    },
    {
      "inputs": [
        {
          "internalType": "address",
          "name": "",
          "type": "address"
        },
        {
          "internalType": "enum Vesting.Role",
          "name": "",
          "type": "uint8"
        }
      ],
      "name": "vestingSchedules",
      "outputs": [
        {
          "internalType": "address",
          "name": "beneficiary",
          "type": "address"
        },
        {
          "internalType": "uint256",
          "name": "cliff",
          "type": "uint256"
        },
        {
          "internalType": "uint256",
          "name": "duration",
          "type": "uint256"
        },
        {
          "internalType": "uint256",
          "name": "totalTokens",
          "type": "uint256"
        },
        {
          "internalType": "uint256",
          "name": "widthdrawTokenPerMonth",
          "type": "uint256"
        },
        {
          "internalType": "uint256",
          "name": "noOfTokensWithdraw",
          "type": "uint256"
        }
      ],
      "stateMutability": "view",
      "type": "function"
    },
    {
      "inputs": [],
      "name": "vestingStartTime",
      "outputs": [
        {
          "internalType": "uint256",
          "name": "",
          "type": "uint256"
        }
      ],
      "stateMutability": "view",
      "type": "function"
    }
  ],
  "bytecode": "0x60806040523480156200001157600080fd5b50604051620023ba380380620023ba83398181016040528101906200003791906200019b565b600073ffffffffffffffffffffffffffffffffffffffff168173ffffffffffffffffffffffffffffffffffffffff1603620000a9576040517f08c379a0000000000000000000000000000000000000000000000000000000008152600401620000a09062000254565b60405180910390fd5b80600160006101000a81548173ffffffffffffffffffffffffffffffffffffffff021916908373ffffffffffffffffffffffffffffffffffffffff160217905550336000806101000a81548173ffffffffffffffffffffffffffffffffffffffff021916908373ffffffffffffffffffffffffffffffffffffffff1602179055505062000276565b600080fd5b600073ffffffffffffffffffffffffffffffffffffffff82169050919050565b6000620001638262000136565b9050919050565b620001758162000156565b81146200018157600080fd5b50565b60008151905062000195816200016a565b92915050565b600060208284031215620001b457620001b362000131565b5b6000620001c48482850162000184565b91505092915050565b600082825260208201905092915050565b7f546f6b656e20616464726573732063616e27742062652030206164647265737360008201527f2e00000000000000000000000000000000000000000000000000000000000000602082015250565b60006200023c602183620001cd565b91506200024982620001de565b604082019050919050565b600060208201905081810360008301526200026f816200022d565b9050919050565b61213480620002866000396000f3fe608060405234801561001057600080fd5b50600436106100b45760003560e01c80638da5cb5b116100715780638da5cb5b146101945780639a2cb296146101b2578063a8660a78146101d0578063d490d769146101ee578063deb36e321461020a578063f020400714610214576100b4565b80631bcf8d63146100b9578063329430ca146100ee5780633fbf00251461010c57806340e803e21461012a5780635c160f661461015a5780637c6331ea14610176575b600080fd5b6100d360048036038101906100ce91906115bf565b610230565b6040516100e596959493929190611627565b60405180910390f35b6100f6610299565b6040516101039190611688565b60405180910390f35b61011461029f565b6040516101219190611688565b60405180910390f35b610144600480360381019061013f91906116a3565b6102a5565b6040516101519190611688565b60405180910390f35b610174600480360381019061016f91906116fc565b61053d565b005b61017e610b91565b60405161018b919061176a565b60405180910390f35b61019c610ba4565b6040516101a99190611785565b60405180910390f35b6101ba610bc8565b6040516101c79190611688565b60405180910390f35b6101d8610bce565b6040516101e59190611688565b60405180910390f35b610208600480360381019061020391906116a3565b610bd4565b005b6102126110a2565b005b61022e600480360381019061022991906117a0565b6111dd565b005b6007602052816000526040600020602052806000526040600020600091509150508060000160009054906101000a900473ffffffffffffffffffffffffffffffffffffffff16908060010154908060020154908060030154908060040154908060050154905086565b60045481565b60035481565b6000600660009054906101000a900460ff166102f6576040517f08c379a00000000000000000000000000000000000000000000000000000000081526004016102ed90611850565b60405180910390fd5b6000600760003373ffffffffffffffffffffffffffffffffffffffff1673ffffffffffffffffffffffffffffffffffffffff168152602001908152602001600020600084600281111561034c5761034b611870565b5b600281111561035e5761035d611870565b5b81526020019081526020016000206040518060c00160405290816000820160009054906101000a900473ffffffffffffffffffffffffffffffffffffffff1673ffffffffffffffffffffffffffffffffffffffff1673ffffffffffffffffffffffffffffffffffffffff1681526020016001820154815260200160028201548152602001600382015481526020016004820154815260200160058201548152505090503373ffffffffffffffffffffffffffffffffffffffff16816000015173ffffffffffffffffffffffffffffffffffffffff1614610473576040517f08c379a000000000000000000000000000000000000000000000000000000000815260040161046a906118eb565b60405180910390fd5b6000816020015160055442610488919061193a565b610492919061196e565b905081602001516005546104a6919061196e565b42116104e7576040517f08c379a00000000000000000000000000000000000000000000000000000000081526004016104de906119ee565b60405180910390fd5b60006104f7828460800151611508565b905082606001518110610522578260a001518360600151610518919061193a565b9350505050610538565b8260a0015181610532919061193a565b93505050505b919050565b60008054906101000a900473ffffffffffffffffffffffffffffffffffffffff1673ffffffffffffffffffffffffffffffffffffffff163373ffffffffffffffffffffffffffffffffffffffff16146105cb576040517f08c379a00000000000000000000000000000000000000000000000000000000081526004016105c290611a80565b60405180910390fd5b600073ffffffffffffffffffffffffffffffffffffffff168373ffffffffffffffffffffffffffffffffffffffff160361063a576040517f08c379a000000000000000000000000000000000000000000000000000000000815260040161063190611b12565b60405180910390fd5b600660009054906101000a900460ff161561068a576040517f08c379a000000000000000000000000000000000000000000000000000000000815260040161068190611b7e565b60405180910390fd5b600060025411801561069e57506000600354115b80156106ac57506000600454115b6106eb576040517f08c379a00000000000000000000000000000000000000000000000000000000081526004016106e290611bea565b60405180910390fd5b6000600760008573ffffffffffffffffffffffffffffffffffffffff1673ffffffffffffffffffffffffffffffffffffffff168152602001908152602001600020600084600281111561074157610740611870565b5b600281111561075357610752611870565b5b81526020019081526020016000206040518060c00160405290816000820160009054906101000a900473ffffffffffffffffffffffffffffffffffffffff1673ffffffffffffffffffffffffffffffffffffffff1673ffffffffffffffffffffffffffffffffffffffff1681526020016001820154815260200160028201548152602001600382015481526020016004820154815260200160058201548152505090508373ffffffffffffffffffffffffffffffffffffffff16816000015173ffffffffffffffffffffffffffffffffffffffff1603610868576040517f08c379a000000000000000000000000000000000000000000000000000000000815260040161085f90611c56565b60405180910390fd5b6000600281111561087c5761087b611870565b5b83600281111561088f5761088e611870565b5b036108f55763018b82008160200181815250506303c26700816040018181525050630229b60062278d00836108c49190611c76565b6108ce9190611ce7565b81608001818152505081600260008282546108e9919061193a565b92505081905550610a0a565b6001600281111561090957610908611870565b5b83600281111561091c5761091b611870565b5b0361098157624f1a008160200181815250506301e1338081604001818152505063013c680062278d00836109509190611c76565b61095a9190611ce7565b8160800181815250508160036000828254610975919061193a565b92505081905550610a09565b60028081111561099457610993611870565b5b8360028111156109a7576109a6611870565b5b03610a0857624f1a008160200181815250506301e1338081604001818152505063013c680062278d00836109db9190611c76565b6109e59190611ce7565b8160800181815250508160046000828254610a00919061193a565b925050819055505b5b5b83816000019073ffffffffffffffffffffffffffffffffffffffff16908173ffffffffffffffffffffffffffffffffffffffff16815250508181606001818152505080600760008673ffffffffffffffffffffffffffffffffffffffff1673ffffffffffffffffffffffffffffffffffffffff1681526020019081526020016000206000856002811115610aa157610aa0611870565b5b6002811115610ab357610ab2611870565b5b815260200190815260200160002060008201518160000160006101000a81548173ffffffffffffffffffffffffffffffffffffffff021916908373ffffffffffffffffffffffffffffffffffffffff1602179055506020820151816001015560408201518160020155606082015181600301556080820151816004015560a082015181600501559050508373ffffffffffffffffffffffffffffffffffffffff167f8866450f21acb2ce5308da000c0f6d4bb01845cee53c2324d03f4ab9482e97ff84604051610b839190611d60565b60405180910390a250505050565b600660009054906101000a900460ff1681565b60008054906101000a900473ffffffffffffffffffffffffffffffffffffffff1681565b60025481565b60055481565b600660009054906101000a900460ff16610c23576040517f08c379a0000000000000000000000000000000000000000000000000000000008152600401610c1a90611850565b60405180910390fd5b6000610c2e826102a5565b11610c6e576040517f08c379a0000000000000000000000000000000000000000000000000000000008152600401610c6590611dc7565b60405180910390fd5b6000600760003373ffffffffffffffffffffffffffffffffffffffff1673ffffffffffffffffffffffffffffffffffffffff1681526020019081526020016000206000836002811115610cc457610cc3611870565b5b6002811115610cd657610cd5611870565b5b81526020019081526020016000206040518060c00160405290816000820160009054906101000a900473ffffffffffffffffffffffffffffffffffffffff1673ffffffffffffffffffffffffffffffffffffffff1673ffffffffffffffffffffffffffffffffffffffff168152602001600182015481526020016002820154815260200160038201548152602001600482015481526020016005820154815250509050806000015173ffffffffffffffffffffffffffffffffffffffff163373ffffffffffffffffffffffffffffffffffffffff1614610deb576040517f08c379a0000000000000000000000000000000000000000000000000000000008152600401610de290611e33565b60405180910390fd5b610df4826102a5565b8160a001818151610e05919061196e565b91508181525050600160009054906101000a900473ffffffffffffffffffffffffffffffffffffffff1673ffffffffffffffffffffffffffffffffffffffff166323b872dd60008054906101000a900473ffffffffffffffffffffffffffffffffffffffff1633610e75866102a5565b6040518463ffffffff1660e01b8152600401610e9393929190611e53565b6020604051808303816000875af1158015610eb2573d6000803e3d6000fd5b505050506040513d601f19601f82011682018060405250810190610ed69190611eb6565b5080600760003373ffffffffffffffffffffffffffffffffffffffff1673ffffffffffffffffffffffffffffffffffffffff1681526020019081526020016000206000846002811115610f2c57610f2b611870565b5b6002811115610f3e57610f3d611870565b5b815260200190815260200160002060008201518160000160006101000a81548173ffffffffffffffffffffffffffffffffffffffff021916908373ffffffffffffffffffffffffffffffffffffffff1602179055506020820151816001015560408201518160020155606082015181600301556080820151816004015560a0820151816005015590505080606001518160a001510361109e57600760003373ffffffffffffffffffffffffffffffffffffffff1673ffffffffffffffffffffffffffffffffffffffff168152602001908152602001600020600083600281111561102b5761102a611870565b5b600281111561103d5761103c611870565b5b8152602001908152602001600020600080820160006101000a81549073ffffffffffffffffffffffffffffffffffffffff02191690556001820160009055600282016000905560038201600090556004820160009055600582016000905550505b5050565b60008054906101000a900473ffffffffffffffffffffffffffffffffffffffff1673ffffffffffffffffffffffffffffffffffffffff163373ffffffffffffffffffffffffffffffffffffffff1614611130576040517f08c379a000000000000000000000000000000000000000000000000000000000815260040161112790611a80565b60405180910390fd5b600660009054906101000a900460ff1615611180576040517f08c379a000000000000000000000000000000000000000000000000000000000815260040161117790611f2f565b60405180910390fd5b426005819055506001600660006101000a81548160ff0219169083151502179055507f3930f04857ba592ba0a6a96942f8350c2415c0a4aa849021aeefee98bb55b1226005546040516111d39190611688565b60405180910390a1565b60008054906101000a900473ffffffffffffffffffffffffffffffffffffffff1673ffffffffffffffffffffffffffffffffffffffff163373ffffffffffffffffffffffffffffffffffffffff161461126b576040517f08c379a000000000000000000000000000000000000000000000000000000000815260040161126290611a80565b60405180910390fd5b600081116112ae576040517f08c379a00000000000000000000000000000000000000000000000000000000081526004016112a590611f9b565b60405180910390fd5b80600160009054906101000a900473ffffffffffffffffffffffffffffffffffffffff1673ffffffffffffffffffffffffffffffffffffffff166370a08231336040518263ffffffff1660e01b815260040161130a9190611785565b602060405180830381865afa158015611327573d6000803e3d6000fd5b505050506040513d601f19601f8201168201806040525081019061134b9190611fd0565b101561138c576040517f08c379a000000000000000000000000000000000000000000000000000000000815260040161138390612049565b60405180910390fd5b80600160009054906101000a900473ffffffffffffffffffffffffffffffffffffffff1673ffffffffffffffffffffffffffffffffffffffff1663dd62ed3e33306040518363ffffffff1660e01b81526004016113ea929190612069565b602060405180830381865afa158015611407573d6000803e3d6000fd5b505050506040513d601f19601f8201168201806040525081019061142b9190611fd0565b101561146c576040517f08c379a0000000000000000000000000000000000000000000000000000000008152600401611463906120de565b60405180910390fd5b600081905060648160326114809190611c76565b61148a9190611ce7565b6002600082825461149b919061196e565b9250508190555060648160196114b19190611c76565b6114bb9190611ce7565b600360008282546114cc919061196e565b9250508190555060648160196114e29190611c76565b6114ec9190611ce7565b600460008282546114fd919061196e565b925050819055505050565b60008062278d008461151a9190611ce7565b90506000818461152a9190611c76565b9050809250505092915050565b600080fd5b600073ffffffffffffffffffffffffffffffffffffffff82169050919050565b60006115678261153c565b9050919050565b6115778161155c565b811461158257600080fd5b50565b6000813590506115948161156e565b92915050565b600381106115a757600080fd5b50565b6000813590506115b98161159a565b92915050565b600080604083850312156115d6576115d5611537565b5b60006115e485828601611585565b92505060206115f5858286016115aa565b9150509250929050565b6116088161155c565b82525050565b6000819050919050565b6116218161160e565b82525050565b600060c08201905061163c60008301896115ff565b6116496020830188611618565b6116566040830187611618565b6116636060830186611618565b6116706080830185611618565b61167d60a0830184611618565b979650505050505050565b600060208201905061169d6000830184611618565b92915050565b6000602082840312156116b9576116b8611537565b5b60006116c7848285016115aa565b91505092915050565b6116d98161160e565b81146116e457600080fd5b50565b6000813590506116f6816116d0565b92915050565b60008060006060848603121561171557611714611537565b5b600061172386828701611585565b9350506020611734868287016115aa565b9250506040611745868287016116e7565b9150509250925092565b60008115159050919050565b6117648161174f565b82525050565b600060208201905061177f600083018461175b565b92915050565b600060208201905061179a60008301846115ff565b92915050565b6000602082840312156117b6576117b5611537565b5b60006117c4848285016116e7565b91505092915050565b600082825260208201905092915050565b7f4f776e657220646f6573206e6f74207374617274207468652076657374696e6760008201527f2e00000000000000000000000000000000000000000000000000000000000000602082015250565b600061183a6021836117cd565b9150611845826117de565b604082019050919050565b600060208201905081810360008301526118698161182d565b9050919050565b7f4e487b7100000000000000000000000000000000000000000000000000000000600052602160045260246000fd5b7f42656e6566696369617279206e6f74206578697374732e000000000000000000600082015250565b60006118d56017836117cd565b91506118e08261189f565b602082019050919050565b60006020820190508181036000830152611904816118c8565b9050919050565b7f4e487b7100000000000000000000000000000000000000000000000000000000600052601160045260246000fd5b60006119458261160e565b91506119508361160e565b92508282039050818111156119685761196761190b565b5b92915050565b60006119798261160e565b91506119848361160e565b925082820190508082111561199c5761199b61190b565b5b92915050565b7f4e6f20746f6b656e7320617661696c61626c65207965742e0000000000000000600082015250565b60006119d86018836117cd565b91506119e3826119a2565b602082019050919050565b60006020820190508181036000830152611a07816119cb565b9050919050565b7f4f6e6c79206f776e65722063616e2063616c6c20746869732066756e6374696f60008201527f6e00000000000000000000000000000000000000000000000000000000000000602082015250565b6000611a6a6021836117cd565b9150611a7582611a0e565b604082019050919050565b60006020820190508181036000830152611a9981611a5d565b9050919050565b7f42656e656669636961727920616464726573732063616e27742062652030206160008201527f6464726573732e00000000000000000000000000000000000000000000000000602082015250565b6000611afc6027836117cd565b9150611b0782611aa0565b604082019050919050565b60006020820190508181036000830152611b2b81611aef565b9050919050565b7f56657374696e6720616c7265616479206163746976652e000000000000000000600082015250565b6000611b686017836117cd565b9150611b7382611b32565b602082019050919050565b60006020820190508181036000830152611b9781611b5b565b9050919050565b7f466972736c747920616c6c6f636174652074686520546f6b656e730000000000600082015250565b6000611bd4601b836117cd565b9150611bdf82611b9e565b602082019050919050565b60006020820190508181036000830152611c0381611bc7565b9050919050565b7f4164647265737320616c72656164792065786973740000000000000000000000600082015250565b6000611c406015836117cd565b9150611c4b82611c0a565b602082019050919050565b60006020820190508181036000830152611c6f81611c33565b9050919050565b6000611c818261160e565b9150611c8c8361160e565b9250828202611c9a8161160e565b91508282048414831517611cb157611cb061190b565b5b5092915050565b7f4e487b7100000000000000000000000000000000000000000000000000000000600052601260045260246000fd5b6000611cf28261160e565b9150611cfd8361160e565b925082611d0d57611d0c611cb8565b5b828204905092915050565b60038110611d2957611d28611870565b5b50565b6000819050611d3a82611d18565b919050565b6000611d4a82611d2c565b9050919050565b611d5a81611d3f565b82525050565b6000602082019050611d756000830184611d51565b92915050565b7f4e6f20746f6b656e20617669616c61626c650000000000000000000000000000600082015250565b6000611db16012836117cd565b9150611dbc82611d7b565b602082019050919050565b60006020820190508181036000830152611de081611da4565b9050919050565b7f41646472657373206e6f74206d6174636865642e000000000000000000000000600082015250565b6000611e1d6014836117cd565b9150611e2882611de7565b602082019050919050565b60006020820190508181036000830152611e4c81611e10565b9050919050565b6000606082019050611e6860008301866115ff565b611e7560208301856115ff565b611e826040830184611618565b949350505050565b611e938161174f565b8114611e9e57600080fd5b50565b600081519050611eb081611e8a565b92915050565b600060208284031215611ecc57611ecb611537565b5b6000611eda84828501611ea1565b91505092915050565b7f56657374696e6720616c726561647920737461727465642e0000000000000000600082015250565b6000611f196018836117cd565b9150611f2482611ee3565b602082019050919050565b60006020820190508181036000830152611f4881611f0c565b9050919050565b7f546f6b656e73203e203000000000000000000000000000000000000000000000600082015250565b6000611f85600a836117cd565b9150611f9082611f4f565b602082019050919050565b60006020820190508181036000830152611fb481611f78565b9050919050565b600081519050611fca816116d0565b92915050565b600060208284031215611fe657611fe5611537565b5b6000611ff484828501611fbb565b91505092915050565b7f46697273746c79204d696e742074686520746f6b656e732e0000000000000000600082015250565b60006120336018836117cd565b915061203e82611ffd565b602082019050919050565b6000602082019050818103600083015261206281612026565b9050919050565b600060408201905061207e60008301856115ff565b61208b60208301846115ff565b9392505050565b7f506c65617365206769766520616c6c6f77616e63650000000000000000000000600082015250565b60006120c86015836117cd565b91506120d382612092565b602082019050919050565b600060208201905081810360008301526120f7816120bb565b905091905056fea26469706673582212200651a971fddecb428c0120e7ddd901c1f9141efe00420292fd4c0f135147204864736f6c63430008180033",
  "linkReferences": {},
  "deployedLinkReferences": {}
}